:100000000C94EE010C940B020C940B020C940B025A
:100010000C940B020C940B020C940B020C940B022C
:100020000C940B020C940B020C940B020C940B021C
:100030000C940B020C940B020C940B020C940B020C
:100040000C940B020C940B020C940B020C940B02FC
:100050000C940B02FFFFFFFFFF00FFFFFFFFFFFFFE
:1000600000FFFFFFFFFFFF00FFFFFFFFFFFF00FF9D
:10007000FFFFFFFFFF00FFFFFFFFFFFF00FFFFFF8E
:10008000FFFFFF00FFFFFFFFFFFF00FFFFFFFFFF7E
:10009000FF00FFFFFFFFFFFF00FFFFFFFFFFFF006D
:1000A000FFFFFFFFFFFF00FFFFFFFFFFFF00FFFF5E
:1000B000FFFFFFFF00FFFFFFFFFFFF00FFFFFFFF4E
:1000C000FFFF00FFFFFFFFFFFF00FFFFFFFFFFFF3E
:1000D00000FFFFFFFFFFFF00FFFFFFFFFFFF00FF2D
:1000E000FFFFFFFFFF00FFFFFFFFFFFF00FFFFFF1E
:1000F000FFFFFF00FFFFFFFFFFFF00FFFFFFFFFF0E
:10010000FF00FFFFFFFFFFFF00FFFFFFFFFFFF00FC
:10011000FFFFFFFFFFFF00FFFFFFFFFFFF00FFFFED
:10012000FFFFFFFF00FFFFFFFFFFFF00FFFFFFFFDD
:10013000FFFF00FF0000000000FFFF00004F000075
:1001400000FF000700070000FF147F147F1400FF6A
:10015000242A7F2A1200FF231308646200FF364915
:1001600055222000FF000503000000FF001C224173
:100170000000FF0041221C0000FF14083E0814008C
:10018000FF08083E080800FF503000000000FF088C
:100190000808080800FF006060000000FF20100849
:1001A000040200FF3E5149453E00FF40427F40406F
:1001B00000FF426151494600FF2141454B3100FF9C
:1001C0001814127F1000FF274545453900FF3C4AAF
:1001D00049493000FF017109050300FF36494949CB
:1001E0003600FF064949291E00FF00363600000090
:1001F000FF005636000000FF081422410000FF14E3
:100200001414141400FF004122140800FF020151CD
:10021000090600FF3E415D551E00FF7E1111117E53
:1002200000FF7F4949493600FF3E4141412200FF1E
:100230007F4141221C00FF7F4949494100FF7F095E
:1002400009090100FF3E4149497A00FF7F0808087B
:100250007F00FF00417F410000FF2040413F01003F
:10026000FF7F0814224100FF7F4040404000FF7F95
:10027000020C027F00FF7F0408107F00FF3E414117
:10028000413E00FF7F0909090600FF3E4151215E02
:1002900000FF7F0919294600FF264949493200FF1E
:1002A00001017F010100FF3F4040403F00FF1F2050
:1002B00040201F00FF3F4038403F00FF63140814F8
:1002C0006300FF070870080700FF615149454300BC
:1002D000FF007F41410000FF020408102000FF00E2
:1002E00041417F0000FF040201020400FF40404042
:1002F000404000FF000003050000FF2054545478E4
:1003000000FF7F4444443800FF384444444400FF25
:10031000384444447F00FF385454541800FF040408
:100320007E050500FF085454543C00FF7F08040478
:100330007800FF00447D4000FFFF2040443D00FF67
:10034000FF7F10284400FFFF417F4000FFFFFF7C3C
:10035000047C047800FF7C0804047800FF384444DF
:10036000443800FF7C1414140800FF081414147C93
:1003700000FF7C08040400FFFF485454542400FF8D
:1003800004043F444400FF3C4040207C00FF1C200C
:1003900040201C00FF3C4030403C00FF4428102817
:1003A0004400FF0C5050503C00FF4464544C440047
:1003B000FF083641410000FF000077000000FF0009
:1003C0004141360800FF08082A1C0800FF081C2AC3
:1003D000080800FFFFFFFFFFFF00FF0011241FBE02
:1003E000CFE5D8E0DEBFCDBF10E0A0E6B0E0EAE5A3
:1003F000F0E102C005900D92AE38B107D9F710E0D8
:10040000AEE8B0E001C01D92A239B107E1F70E9449
:1004100064060C942B080C9400000AC02FEF33EDF7
:1004200040E3215030404040E1F700C00000019718
:100430000097A1F70895AB9AAC980895AC9AAB9841
:100440000895D798A898A99AAA988AE08A95F1F76A
:1004500000C0AA9A8AE08A95F1F700C0CF99F4CF3C
:10046000D79A0895CF93DF930F92CDB7DEB78983E4
:100470000E94210290919100898198279BBBA89AA4
:10048000A998AA9A8AE08A95F1F700C0AA980F90D5
:10049000DF91CF910895CF93DF930F92CDB7DEB761
:1004A00089830E94210289818BBBA898A998AA9A66
:1004B0008AE08A95F1F700C0AA980F90DF91CF915A
:1004C00008951F93CF93DF93C82FD62F142F823018
:1004D000D0F46830C0F44034B0F4882319F40E949A
:1004E0001B0202C00E941E02C0938E00D86BD093E4
:1004F0008F00812F8064809390000E944B02809136
:100500008F000E944B02DF91CF911F91089520919F
:100510008E00FC01208380918F00FB0180838091FD
:100520009000FA0180830895CF93C82F8230A0F401
:10053000882319F40E941B0202C00E941E02C0936D
:100540008E0080E48093900080918F000E944B0287
:10055000809190000E944B02CF910895883030F432
:10056000885480938F0080E00E94940208951F9326
:10057000CF93DF931091910010929100C0E08C2FE7
:100580000E94AE02D0E005C0D03419F481E00E9490
:10059000940280E00E943202DF5FD038A9F7CF5F7B
:1005A000C83069F71093910080E00E94AE02DF919D
:1005B000CF911F9108958FEF84BB8ABB0E941B02CD
:1005C0008FE30E944B020E941E028FE30E944B02A7
:1005D0008FE39CE90197F1F700C000000E941B0225
:1005E00080EC0E944B020E941E0280EC0E944B0293
:1005F0000E94B702089580918F008F5F80938F00D3
:10060000803C18F088EB80938F0080E00E94940279
:1006100008958FEF809391000895109291000895AE
:100620000F931F93CF93DF930F92CDB7DEB79091C7
:100630008E00913021F4909190009C3710F48A3014
:1006400031F489830E94FB0289818A3021F190E094
:100650008C0123E0000F111F2A95E1F7081B190BED
:100660000C5A1F4F80918E00882339F4809190009E
:10067000803819F481E00E949402F80184918F3F40
:1006800051F00F5F1F4F0E943202809190008F5FE8
:1006900080939000E7CF0F90DF91CF911F910F9142
:1006A0000895CF93DF93EC0102C00E94100389915B
:1006B0008823D9F7DF91CF9108958F929F92AF92BF
:1006C000BF92EF92FF920F931F93CF93DF93CDB71B
:1006D000DEB72A970FB6F894DEBF0FBECDBFDC01A0
:1006E000CB01042F0097A105B10559F07E010894B4
:1006F000E11CF11C10E03AE0832E912CA12CB12CCE
:1007000022C0FE01319610E002C011921F5F101747
:1007100029F11A30D1F722C00097A105B10559F08F
:10072000BC01CD01A50194010E940908F701608375
:10073000C901DA0104C00B3088F4F70110821F5F91
:100740000894E11CF11C101739F708C0FE01E10FF5
:10075000F11D8081805D0E94100311501123B1F7BB
:100760002A960FB6F894DEBF0FBECDBFDF91CF91B2
:100770001F910F91FF90EF90BF90AF909F908F903F
:1007800008951F93CF93DF93CDB7DEB72A970FB6A7
:10079000F894DEBF0FBECDBFDC01CB01FE01319668
:1007A00010E00097A105B10519F01BC011921F5F61
:1007B000141731F11A30D1F723C00097A105B10504
:1007C00059F0282F2F70208354E0B695A795979560
:1007D00087955A95D1F703C04B3090F410821F5F74
:1007E0003196141751F70CC0FE01E10FF11D808105
:1007F0008A3010F0895C01C0805D0E9410031150A6
:10080000112391F72A960FB6F894DEBF0FBECDBF25
:10081000DF91CF911F910895AF92BF92CF92DF9257
:10082000EF92FF920F931F93CF93DF930F92CDB769
:10083000DEB76B017C01E1E0AE2EB12C20C0042FAD
:1008400010E001501040C50102C0880F991F0A95A1
:10085000E2F78C01222717FD2095322F0C211D2154
:100860002E213F2181E0011511052105310509F4F3
:1008700080E0805D49830E941003498141504423F8
:10088000F1F60F90DF91CF911F910F91FF90EF90B4
:10089000DF90CF90BF90AF900895CF92DF92EF920C
:1008A000FF920F931F93CF93DF936B017C010E9404
:1008B000EC068B01D82FC92F4FEF0E945D038EE20B
:1008C0000E941003B8018D2F9C2F0E9418079B01D6
:1008D000AC01C701B6010E94870620E034E244E77C
:1008E00059E40E94A607462F572F682F792FCB0176
:1008F000BA010E94EC064FEF0E945D03DF91CF9199
:100900001F910F91FF90EF90DF90CF900895AF92DD
:10091000BF92CF92DF92EF92FF920F931F93CF93EC
:10092000DF9300D0CDB7DEB79E012F5E3F4F0F851E
:100930001889F6C0853209F0E9C058010894A11C55
:10094000B11CF8018181982F90539A3090F4F501F1
:1009500040E009C0842F880F482F440F440F480FF0
:10096000490F818131965F01982F90539A3090F30F
:1009700001C04FEF883509F487C08935C0F484344D
:1009800009F44BC0853448F4823409F494C08334AC
:1009900028F5853209F0C1C0B1C0833509F4A4C07F
:1009A000853509F45DC0863409F0B7C092C086363B
:1009B00009F48FC0873640F4833681F08436B1F075
:1009C000823609F0AAC06BC0853709F440C0883769
:1009D00009F451C0833709F0A0C086C089010E5FB9
:1009E0001F4FF90180810E94100386C089010E5FAC
:1009F0001F4FF901C080D180D7FE09C0D094C194A7
:100A0000D108D3948DE249830E9410034981B60135
:100A1000882777FD8095982F2BC089010C5F1F4F89
:100A2000F901C080D180E280F380F7FE0DC0F09420
:100A3000E094D094C094C11CD11CE11CF11C8DE247
:100A400049830E9410034981C701B60111C0890181
:100A50000E5F1F4FF9016081718180E090E008C056
:100A600089010C5F1F4FF90160817181828193813F
:100A70000E945D0341C089010E5F1F4FF901608133
:100A8000718180E090E008C089010C5F1F4FF9017F
:100A900060817181828193810E94C1032DC089018F
:100AA0000E5F1F4FF901608171814F3F09F440E1F2
:100AB00080E090E00BC089010C5F1F4FF90160815D
:100AC0007181828193814F3F09F440E10E940C04BF
:100AD00013C089010C5F1F4FF90160817181828110
:100AE00093810E944D0408C089010E5F1F4FF901D8
:100AF000808191810E94510398010FC085E2298372
:100B00003A830E94100329813A8107C029833A83DE
:100B10000E94100358013A81298185010F5F1F4F00
:100B2000F8018081882309F005CF0F900F90DF91A5
:100B3000CF911F910F91FF90EF90DF90CF90BF90DA
:100B4000AF900895CF93DF93C0E08C2F0E94AE0248
:100B5000D0E004C0D03411F40E941E0280E00E9454
:100B60003202DF5FD038B1F7CF5FC83071F780E075
:100B70000E94AE02DF91CF910895CF92DF92EF9263
:100B8000FF920F931F93CF93DF930F92CDB7DEB7F2
:100B9000F62E843008F054C094E6961708F450C03E
:100BA000582F5295550F507E503420F05054CC247D
:100BB000C39401C0CC24452F485F8C2D60E059833D
:100BC0000E9461020F2D10E020E030E0C901B80161
:100BD00043E00E945D03F6948F2D86958695869559
:100BE00017E0181BE7E0FE2288E090E08F199109DA
:100BF0002FEF30E002C0220F331F8A95E2F7F22E6A
:100C000001E05981ACE0DA2ED50E8C2D602F4D2DF0
:100C10000E946102011720F0011721F49F2D03C0EB
:100C200090E001C09FEFFCE0EF2E892F99830E9496
:100C30003202EA949981EE20C1F70F5F083029F75C
:100C40000F90DF91CF911F910F91FF90EF90DF9068
:100C5000CF9008951F93CF93DF93C62F843080F5F4
:100C6000653670F5D82FDD0FDF5F80E06D2F40E037
:100C70000E94610210E009C0103419F481E00E9462
:100C800094028FEF0E9432021F5F1C17A9F71C2FDE
:100C900009C0103419F481E00E94940280E00E949F
:100CA00032021F5F1436A9F781E06D2F4EE60E94D5
:100CB00061026C2F70E080E090E043E00E945D03F1
:100CC000DF91CF911F9108950E94DB0200D080E652
:100CD00090E0EDB7FEB7928381830E9487040F9066
:100CE0000F9084E00E94AE0200D08DE690E0EDB758
:100CF000FEB7928381830E9487040F900F9087E054
:100D00000E94AE0287E790E00E945103FFCF505847
:100D1000BB27AA270ED0E0C0D1D030F0D6D020F02B
:100D200031F49F3F11F41EF4C6C00EF4E095E7FBCA
:100D3000BCC0E92FE2D080F3BA17620773078407BB
:100D4000950718F071F49EF5FAC00EF4E0950B2E9D
:100D5000BA2FA02D0B01B90190010C01CA01A0010D
:100D60001124FF27591B99F0593F50F4503E68F168
:100D70001A16F040A22F232F342F4427585FF3CFA9
:100D8000469537952795A795F0405395C9F77EF47A
:100D90001F16BA0B620B730B840BBAF09150A1F0C3
:100DA000FF0FBB1F661F771F881FC2F70EC0BA0F49
:100DB000621F731F841F48F4879577956795B795D1
:100DC000F7959E3F08F0B3CF9395880F08F09927C9
:100DD000EE0F97958795089598D088F09F5790F0DB
:100DE000B92F9927B751A0F0D1F0660F771F881F50
:100DF000991F1AF0BA95C9F712C0B13081F09FD08F
:100E0000B1E008959CC0672F782F8827B85F39F02C
:100E1000B93FCCF3869577956795B395D9F73EF4AE
:100E200090958095709561957F4F8F4F9F4F089556
:100E3000E89409C097FB3EF4909580957095619574
:100E40007F4F8F4F9F4F9923A9F0F92F96E9BB272A
:100E50009395F695879577956795B795F111F8CFA6
:100E6000FAF4BB0F11F460FF1BC06F5F7F4F8F4F11
:100E70009F4F16C0882311F096E911C0772321F007
:100E80009EE8872F762F05C0662371F096E8862F9F
:100E900070E060E02AF09A95660F771F881FDAF7F6
:100EA000880F9695879597F9089597F99F6780E839
:100EB00070E060E008959FEF80EC089500240A94AC
:100EC0001616170618060906089500240A94121625
:100ED0001306140605060895092E0394000C11F458
:100EE000882352F0BB0F40F4BF2B11F460FF04C005
:100EF0006F5F7F4F8F4F9F4F089557FD9058440F5E
:100F0000551F59F05F3F71F04795880F97FB991F68
:100F100061F09F3F79F08795089512161306140625
:100F2000551FF2CF4695F1DF08C0161617061806B2
:100F3000991FF1CF86957105610508940895E8948D
:100F4000BB2766277727CB0197F908950BD0C4CF2D
:100F5000B5DF28F0BADF18F0952309F0A6CFABCFA4
:100F60001124EECFCADFA0F3959FD1F3950F50E087
:100F7000551F629FF001729FBB27F00DB11D639F4B
:100F8000AA27F00DB11DAA1F649F6627B00DA11DF1
:100F9000661F829F2227B00DA11D621F739FB00D97
:100FA000A11D621F839FA00D611D221F749F332707
:100FB000A00D611D231F849F600D211D822F762FA0
:100FC0006A2F11249F5750408AF0E1F088234AF09D
:100FD000EE0FFF1FBB1F661F771F881F91505040E9
:100FE000A9F79E3F510570F060CFAACF5F3FECF3A9
:100FF000983EDCF3869577956795B795F795E795D5
:101000009F5FC1F7FE2B880F911D9695879597F9E5
:101010000895A1E21A2EAA1BBB1BFD010DC0AA1F39
:10102000BB1FEE1FFF1FA217B307E407F50720F051
:10103000A21BB30BE40BF50B661F771F881F991FCC
:101040001A9469F760957095809590959B01AC0115
:0A105000BD01CF010895F894FFCF11
:10105A0048656C6C6F20576F726C6421002A265E9B
:10106A0025242340217E0057656C6C2074686973BF
:0E107A002069732074686520656E6421000093
:00000001FF
